:020000040000FA
:060000000217FC020A8A4F
:03001300020B4697
:03002B0002157348
:03003300020CD4E8
:03003B00020B9B1A
:03004B0002148715
:030053000209BFE0
:03005B000212DFAF
:0300630002130085
:03006B00020C7A0A
:03007B00020CABC9
:10008300020A1E010020FD000201FC050000000120
:10009300D61EE81E0000EE1EF41E00000000FA1E2D
:1000A300121F181F1E1F00000000000000000102A5
:1000B3000408102040801801FF0D01010401FEFF18
:1000C300000000000000000612FFFFFFFFFFFFFF1C
:1000D30001010104006C15000000E8030000FFFFAC
:1000E300C015E803000064006400B801A0BB0D0064
:1000F300A0BB0D00020200F8FF0705021E04010564
:100103001E02051E020A0A010108080310270280C5
:100113003E0102FEFFE8030A050001FFFF020A1485
:1001230001E002000000C503423F1A51123FF304ED
:10013300B53F0000803EFFFFFF0005030101FF669E
:100143003D000000003A3C00000000FF000000FFFB
:1001530000C082C083E9FA5407F8745A28F582E490
:100163003418F583E0F879006022EAC4540F54038D
:10017300600814600914600D8012E5808002E59028
:100183005870078007E5A0586002790102027DC01C
:1001930082C08312028240047800800312033AE88B
:1001A300F4FCEB600814601214601C802BEA6005F9
:1001B300E842808023EC5280801EEA6005E842908A
:1001C3008016EC52908011E8C39420500BEA60052E
:1001D300E842A08003EC52A002027DC082C08312D9
:1001E300028240047800800312033AE8F4FCE870CA
:1001F3000302027DEB600814602C146050807BECDA
:1002030052F374016A601274026A601574046A70AE
:1002130003E8428FE842FD806153F7DFEC528F80A1
:10022300F343F72080F6EC52F474016A601274020F
:100233006A601574046A7003E842F6E842FE803A85
:1002430053F7BFEC52F680F343F74080F6E8C394CC
:10025300205027EC52F574016A601274026A60152B
:1002630074046A7003E842F7E842FF800D53F77F96
:10027300EC52F780F343F78080F6D083D08222E9F3
:10028300C4540F5403FB743F59C394302274F812BF
:100293000ED0E9C4540F5403FE743F59C394304045
:1002A300047800800312033AE8F4FBE86077EE6019
:1002B3000814602B14604E806CEB52F352FD7401F2
:1002C3006A600F74026A600F74046A7058E8428FA0
:1002D300805353F7DF800343F720EB528F8046EBC5
:1002E30052F452FE74016A600F74026A600F740460
:1002F3006A7032E842F6802D53F7BF800343F7401C
:10030300EB52F68020E8C39420501AEB44E0FB52F2
:10031300F552FF74016A601274026A601574046A0C
:100323007003E842F77F0102126053F77FEB52F745
:1003330080F343F78080F6E95407FC745A2CF58266
:10034300E43418F583E0F822C082C08312028240AD
:10035300047800800312033AE8F4FCE86038EB60A9
:100363000814601214601C802DEA6005E842FD80C9
:1003730025EC52FD8020EA6005E842FE8018EC522D
:10038300FE8013E8C39420500DEA6005E842FF8025
:100393000574E04C52FF02027DC082C083120282C8
:1003A30040047800800312033AE8F4FCE8603FEB72
:1003B30060081460151460228034EA6005E8428006
:1003C3008003EC5280E842FD8024EA6005E8429015
:1003D3008003EC5290E842FE8014E8C39420500E50
:1003E300EA6005E842A08003EC52A0E842FF020263
:1003F3007D743F59C394305042E9C4540F54036091
:1004030007146013146020227801E8F4FBEA6024E7
:1004130014601814601922740F59C394045004789B
:100423000280E7780480E3780880DFE8428C22E5E5
:100433008C586004EB528C22E8428C2212180C6018
:100443001D12181B7005191919801A121675701FC1
:1004530012169DC37003E66733191919400718185C
:10046300182208080874FFF618F618F618F6221270
:10047300169D60171218C1702192F01218CA7019D4
:10048300501720F014080808090909E7F61819E7B6
:10049300F61819E7F61819E7F6221218CA60E6E803
:1004A30069701F0808E62480F608E436F618547FBE
:1004B300B47F0CE654806007F6E418F618F62218A9
:1004C3001822E9C6CC08C6CD08C6CE08C6CFC0E000
:1004D300E8C0E0EAC0E0EBC0E009E9F809E7FA099F
:1004E300E7FBE6F918E6F8C3EC98ED99EE9AEBC250
:1004F300E7F5F0EFC2E795F0500E600CEBCFFBEAA7
:10050300CEFAE9CDF9E8CCF8EAA2E7D2E7FAEB3381
:10051300FB13F5F0EEA2E7D2E7FEEF33FFC5F013CE
:10052300A2E730E601B313C5F0C3C0E0C0F07F001B
:10053300C39BFB605E9418600F401D14601AD0E0EB
:1005430023F9D0E0F80206208AF0E9486003D2F0EC
:10055300E4AFF0FAF9F8803BEB30E40D89F0EA60A0
:1005630003D2F0E4AFF0F9CAF8EB30E30D88F0EF13
:100573006002D2F0AFF0E4CAC9F8EB54076014FB91
:10058300C3EA13FAE913F9E813F8EF135002D2E0C0
:10059300FFDBEDD0E0C0E030E739C3E49FFFF5F0C7
:1005A300EC98FC42F0ED99FD42F0EE9AFE42F0D059
:1005B300E0F9D0E0F8E5F0607AE923F9EE20E742CC
:1005C300D8028067C3EF33FFEC33FCED33FDEE332A
:1005D300FE80EAEC28FCED39FDEE3AFED0E023F98B
:1005E300D0E0F84002801BC3EE13FEED13FDEC13C5
:1005F300FCEF135002D2E0FF08B800067F7F74FFC0
:10060300802EEF3350178CF020F00260100CBC00EA
:100613000C0DBD00080EBE000408E860DFE933E8F6
:1006230013FFEE2313FE4F4D4C8008E95480FFE483
:10063300FEFDFCEE33EF33F47004FCFD7E80D0E06E
:10064300FBD0E0FAD0E0F8D0E0CFC618CEC618CD84
:10065300C618CCC6F92212180C70041818182212E6
:10066300181B700D74FFF61819F61819F61819F6F9
:1006730022E7548066F61218CA700F1218C170F080
:1006830014F608F608F608F680D11218C1700CF6B5
:1006930008F608768008E6447F80EC1216A0700CFA
:1006A30012167860BFE65480F6E480BB12167870A9
:1006B3000519191980A5E869700C763F187680181A
:1006C300F618F6E8F922E6CDC0E018ECC0E0E63310
:1006D300CD33CDD313F6E719FCE7191933CC33C364
:1006E300947F400ECD9D502408E65480F6E418F61E
:1006F300800FF4043D14501408E6447FF618768006
:10070300E418F618F6D0E0FCD0E0FD22CCD313CCED
:10071300FD18E4C6CBC0E018E4C6CAC0E00808ED83
:1007230008C633E613F618E433C675F003C3CA9755
:10073300CA09CB97CB199C40047D08802EBD0003CA
:1007430002080216B6FF050606081618C3CA33CAFE
:10075300CB33CB33CA27CA09CB37CB193CC37D086C
:10076300803E187D0820E75CC633C6CA33CACB3344
:10077300CB33DDF1D5F0EB30E77BCA97CA09CB97D2
:100783004ACB199C406F4B7025E620E02180661808
:100793007D08C3CA97CA09CB97CB199CD3C633C666
:1007A300CA33CACB33CB3350C9DDE7D5F0E1D3E449
:1007B300C636C608C636C608C636C608C636C618FE
:1007C30018188031C3CA97CA09CB97CB199CB34079
:1007D30097C633C6CA33CACB33CB33DD34D5F02EF9
:1007E300C6A2E0C640C8CA27CA09CB37194A70BE99
:1007F300CB3CB480B90808E63308E633601F181809
:1008030018D0E0FAD0E0FBD0E0FCD0E0FD22187D68
:1008130008CA27CA09CB37CB193CD3808013F618F3
:10082300E4B67F11F618B6FF0EF618C60470D208A8
:1008330008768080CAF618F618F680C50012180CE0
:10084300604F12181B6012E7548066F6121675701B
:10085300111218C1703B090909F4F618F618F618B5
:10086300F62212169D70151218CA08080860EAE6E7
:10087300447FF618768018E4F618F6221218CA6038
:10088300161218C17012E4F608F608F608E654804A
:10089300F609090918181822EAC0E0EBC0E0ECC019
:1008A300E0EDC0E0E687F0A4FBACF008E687F0A437
:1008B3002CFCE435F0FA1809E687F0A42C4B60020F
:1008C3007401CA35F0FCE433FB09E687F0D2F7A4E0
:1008D3002CCB35F0FC1908E687F0A42BCC35F0FBC4
:1008E300E433FD0819E687F0D2E7A42C4ACB35F0B0
:1008F300CD3400FC09E687F0D2E7A42DCC35F0FD1A
:10090300E433FA0918E687F0D2F7A42CCD35F0CA00
:100913003400FC08E687F0D2E7D2F7A42ACC35F0FE
:100923007A7E20E70B0ACB33CBCD33CDCC33CC331C
:10093300CB3350147004ED30E00ED2F1E4CD3DCD55
:10094300CC3CCC3B5005DA05C2F1EB547FC63308EF
:10095300E63392F0FBE73309E733C39A502D2B704C
:10096300190C0D4C4D70151806E608C333700D2095
:10097300F10AA2F013F6E418800B4024E4F630F0F9
:1009830002768018F618F618F68024D33B1450101C
:1009930074FFA2F013F6187680E418F618F6800FA9
:1009A300A2F013F618E63303F618ECF618EDF6D0BA
:1009B300E0FDD0E0FCD0E0FBD0E0FA22C0E074F12F
:1009C300120F36A2AFE433F509D2AF85A708AFA162
:1009D300EF5508FE74105E6006121BC475A1EF7418
:1009E300085E6008121BCA75A1F78024EFA2E0928B
:1009F300F0E508A2E082F05017906198E0F89005C6
:100A03006CE0C398A2D265D0335002E8F075A1FE22
:100A1300E509A2E092AF7F02020F95C0E074F212E3
:100A23000F36A2AFE433FED2AF9061A4E0F8759B1A
:100A330000E59158540860087591F7121C12802341
:100A4300E59158541060087591EF121C188014E555
:100A530091A2E092F0E8A2E082F05007E0C2E0F059
:100A6300121D629061A3E0F8E5E9585404600E1288
:100A73001D3875E9FB906193E0A2E640F2EEA2E037
:100A830092AF7F01020F95C0E074F2120F36A2AF4E
:100A9300E433FED2AF9061A5E0F8E5BF585404609B
:100AA3000675BFFB121D7A80D4C3E498F8E499F964
:100AB300120AED8026C3E49AFAE49BFBE920E7E9F6
:100AC300120AEDE498F8E499F922C3E498F8E4995A
:100AD300F9120AEDE498F8E499F9C3E49AFAE49B6D
:100AE300FB22EB20E7CFE920E7E0B90010BB0008C9
:100AF300E88AF084F8AAF022E4FBC8FA22EB702219
:100B03007B10C833C8C933C9335007C39AC3DBF258
:100B130080069A50012ADBEAC833F4C8C933F4C902
:100B2300FA2275F008E4C833C8C933C933C99AC96E
:100B33009B5004C92AC93BD5F0ECFBC833F4C8E485
:100B4300C9FA22C0E0C0D0E8C0E0E9C0E0C082C07A
:100B530083A8C1E8C0E09004D9E0F8745828F5826E
:100B6300E43404F583D0E0F09004D8E0F8A3E0681F
:100B73007006E5959004DBF09004D9E004F0C3948B
:100B8300804002E4F0A374C6F0D083D082D0E0F9B1
:100B9300D0E0F8D0D0D0E032C0E0C0D0E8C0E0E987
:100BA300C0E0C082C08390055CE0F8A3E0687008F1
:100BB300539AFBA374018022C2E990055CE0F874A8
:100BC3000128F074DC28F582E43404F583E0F5C1F0
:100BD30090055CE0C394804002E4F080AC120C2BDF
:100BE30030F039120C708034120C2B20F01430E7E3
:100BF3002B74FFFCFBFA747F8022E4FCFBFA748005
:100C0300801AB48008BC00F2BB00EF800F50EBF9F0
:100C1300E4C39AFAE49BFBE49CFCE499C6CC18C6B3
:100C2300CB18C6CA18C6F922E4C9C608CAC608CB77
:100C3300C6D3330308CCC63392F0C3947F402E94BB
:100C4300184019C9B90704CACBCC225025C309CA15
:100C530033CACB33CBCC33CC33D9F422F4600DC9B4
:100C6300CCC313CB13CBCA13CAD9F6CC22E4FCFBF7
:100C7300FA2214FCFBFA22C0E074F2120F36A2AF80
:100C8300E433FED2AF900710E05589600FE589FA8F
:100C93007900122038900710E0F45289C2C5EEA201
:100CA300E092AF7F01020F95C0E074F2120F36A2FB
:100CB300AFE433FED2AF900711E0558A600FE58AA7
:100CC300FA7901122038900711E0F4528AC2EB80BE
:100CD300CDC0E074F2120F36A2AFE433FED2AF9070
:100CE3000712E0558B600FE58BFA790212203890DA
:100CF3000712E0F4528BC2E880A4080808EAC0E0B7
:100D0300EBC0E086F0E7A4FA180986F0E7A42AFA14
:100D1300180986F0E7A42AFA180986F0E7A42AFA44
:100D23001986F0E7A4FBE5F02AFA190886F0E7A490
:100D33002BFBE5F03AFA190886F0E7A42BFBE5F064
:100D43003AFA18180986F0E7A4C5F02BFBE43AFA3F
:100D53001908E7C5F0C6A426F6E5F03BFBE43AFA2A
:100D63001886F0E7A4F6E5F00826F6E43B08F6E477
:100D73003A08F6D0E0FBD0E0FA22080808E630E7AC
:100D8300111216D9120D95080808C64480C6181802
:100D93001822181818E9799EC608CAC608CBC608CF
:100DA300CCC6C370207996CACBCC7019798ECBCCC4
:100DB30070137986CC700EF9802ACA33CACB33CB31
:100DC300CC33CC331930E7F2CCCBCA335014700494
:100DD300EA30E00DE4CA3ACACB3BCBCC3CCC500260
:100DE30009C3E913C6CC182313C6CB18C6CA18C641
:100DF300F922E4CFC0E0E4CEC0E0E4CDC0E0E4CC2F
:100E0300C0E075F020E626F608E633F608E633F68A
:100E130008E633F6181818EC33FCED33FDEE33FE19
:100E2300EF33FFC3EC9709ED9709EE9709EF971995
:100E33001919400FFFEC97FC09ED97FD09EE97FE9A
:100E4300191906D5F0BFECF709EDF709EEF709EF2D
:100E5300F7191919D0E0FCD0E0FDD0E0FED0E0FF97
:100E6300222518C582C0E0E51934FFC583C0E0E53B
:100E730018C3958224F810AF0885831985821880DA
:100E830008858319858218D2AFCEF0A3E520F0A39D
:100E93007808E608F0A3DEFAEFF0A3E58124FAF878
:100EA300E608F0A3E608F0A3E608F0A30808E608BE
:100EB300F0A3E608F0A315811581D0E0FED0E0F899
:100EC300158115811581E8C0E0EEC0E0222518C523
:100ED30082C0E0E51934FFC583C0E0E518C39582FD
:100EE30024F910AF08858319858218800885831932
:100EF300858218D2AFCEF0A3E520F0A37808E608E8
:100F0300F0A3DEFAEFF0A3E58124FBF8E608F0A3F3
:100F1300E608F0A30808E608F0A3E608F0A31581A5
:100F23001581D0E0FED0E0F815811581E8C0E0EE30
:100F3300C0E022C0D02518C582C0E0E51934FFC542
:100F430083C0E0E518C3958224F310AF08858319A5
:100F53008582188008858319858218D2AFC8F0A3CB
:100F6300E9F0A3EAF0A3EBF0A37908E709F0A3D82B
:100F7300FAECF0A3EDF0A3EEF0A3EFF0A3D0E0F0D2
:100F8300A3D0E0F0A3D0E0F0A3E520F0A3E5F0F0D8
:100F9300A322851983851882E0C0E0A3E0F9A3E0CA
:100FA300FAA3E0FBA37808E0F608A3DFFAE0FCA3CA
:100FB300E0FDA3E0FEA3E0FFA3E0C0E0A3E0C0E008
:100FC300A3E0F5D0A3E0F520A3E0A3F5F010AF086C
:100FD3008583198582188008858319858218D2AF85
:100FE300D082D083D0E0F8D0E0321216DC18181883
:100FF300120DF51217AB191919221217AB1919197A
:10100300080808E618181820E7E0120DF51216DC98
:1010130018181822090909E719191920E7DC080823
:1010230008E618181820E703020DF51216DC181845
:1010330018120DF51216DC1818181217AB19191916
:10104300221218ACB90003021083E4900401782F34
:1010530079158002F0A3D8FCD9FA7A2F7B18900077
:101063008678CF79018015E493A3AD82AE838A821B
:101073008B83F0A3AA82AB838D828E83D8E9D9E7D1
:101083007582E8758390740712150475823675832B
:10109300377400121504E4730C75F0108E1A8F1B4D
:1010A30085821F85831E851882851983E0CEA3E080
:1010B300CF851F82851E83EBC9EAC8EDCBECCAC37B
:1010C300E833C8E933C9EA33CAEB33CBC3EA9EF545
:1010D3001DEB9FF51CB35004AB1CAA1DEC33CCEDE8
:1010E30033CDD5F0DAAE1AAF1B2212180C601C12E6
:1010F300181B60171218CA70071218C17001D32287
:10110300C0D01218C17006D0D0B322C32233D0D0BE
:10111300501430E0F6C3E7960809E7960809E79606
:101123000809E796B32220E0D5E6970809E6970871
:1011330009E6970809E697B322D083D082ECC0E092
:10114300EDC0E0E493A3FCE493A3FDED4C600D122A
:1011530012A0EC24FFFCED34FFFD80EFE493A3FC2D
:10116300E493A3FDED4C600D1213A7EC24FFFCEDFB
:1011730034FFFD80EFD0E0FDD0E0FCE493A3C0E0BA
:10118300E493C0E02212180C601B12181B601612A5
:1011930018CA70071218C1600CB322C0D01218C14C
:1011A3007005D0D022C32233D0D0501330E0EBC32C
:1011B300E7960809E7960809E7960809E7962220C3
:1011C300E0E4E6970809E6970809E6970809E69731
:1011D30022D083D082E9C0E0E493A3C386F0C5F0B4
:1011E30095F0F908E493A386F0C5F095F0700BE44D
:1011F30093A3C3994005E9048002A3E475F002A414
:101203002582F582E5F03583F583D0E0F9E493A3F5
:10121300C0E0E493C0E022851983851882E0A3FE31
:10122300E0A3F5207808E0A3F608DFFAE0A3FFE0E7
:10123300A3C0E0E0A3C0E0E0A3C0E0E0A3C0E0E01F
:10124300A3C0E010AF0885821885831980088582C2
:1012530018858319D2AFD083D08202150A851983EA
:10126300851882E0A3FEE0A3F5207808E0A3F60842
:10127300DFFAE0A3FFE0A3C0E0E0A3C0E0E0A3C087
:10128300E0E0A3C0E010AF088582188583198008C9
:10129300858218858319D2AFD083D08222C0E0C360
:1012A300E49396087401939618400FE493667008CC
:1012B30008740193661870007019A3A3C3E493968E
:1012C300087401939618A3A3400DD0E0D0E0D0E0BA
:1012D300021178A3A3A3A3A3A3D0E022C0E074F2D6
:1012E300120F36C2D9901877E0C39400A2D265D00A
:1012F300334005E0F912241C7F01020F95C0E0740E
:10130300F2120F36C2DC901879E0F9C39400A2D22E
:1013130065D033400312241C80DE740480047402FD
:101323008000CCC0E0EDC0E0E518C39CCCAD195003
:10133300011D10AF068C188D1980068C188D19D2DB
:10134300AF121466D0E0FDD0E0FC2274028000CC22
:10135300C0E0EDC0E0E518C39CCCAD1950011D10F1
:10136300AF068C188D1980068C188D19D2AF121404
:1013730022D0E0FDD0E0FC2212180C602512181BCD
:1013830060201218CA70030218C1080808E76670C3
:10139300101819E766700A1819E76670041819E738
:1013A3006622F422C0E0C0F088F0E4936670080877
:1013B30074019366187000A8F0A3A3700BD0F0D04B
:1013C300E0D0E0D0E0021178A3A3D0F0D0E022D0A7
:1013D30083D082CCC0E0E493A360061214E51470BA
:1013E300FAE493A3600612160A1470FAD0E0FCE440
:1013F30093A3C0E0E493C0E022C008C3E096F508DD
:1014030008A3E096420808A3E096420808A3E096E2
:101413004208A2D265D033E5087001D3D00822CAAE
:10142300C0E0E493A3C582CCC582C583CDC583F058
:10143300A3C582CCC582C583CDC583DAE5D0E0CA16
:1014430022A2E792D65002F40430F70663F0FF05B8
:10145300F0B3400384800384F40430D60563F0FFC3
:1014630005F022CAC0E0E0A3C582CCC582C583CD06
:10147300C583F0A3C582CCC582C583CDC583DAE617
:10148300D0E0CA22C0E0C0D0C082C08375AF009054
:10149300074FE02401F0A3E03400F0D083D082D0E2
:1014A300D0D0E0327009080808226016181818C650
:1014B300C333C608C633C608C633C608C633C6D543
:1014C300E0EA22C008C3E096F50808A3E0964208C4
:1014D30008A3E096420808A3E09645087001D3D01C
:1014E3000822C0E0E493A3D39C5010E493A3C39CCD
:1014F300400AD0E0D0E0D0E00213EFA3A3A3D0E0F2
:1015030022C09FF59FE473D09F22D083D082C09FD7
:10151300E493C0E0740193C0E0740293F59F2274D6
:1015230004800A74038006740280027401C0E0F42C
:101533000412153DD0E0121857222518F58210AF7A
:1015430008F518400C15198008F51840021519D232
:10155300AF8519832200C0D0251810AF08F51850A5
:101563000C05198008F51850020519D2AFD0D02206
:10157300C0E0C0D0E8C0E0A8A8D2AFC2C7E8A2E7E5
:1015830092AFD0E0F8D0D0D0E032BB0102E722C066
:1015930082C08389828A83BB0003E08002E493D004
:1015A30083D082226017080808C6A2E713C618C6AC
:1015B30013C618C613C618C613C6D5E0E9226016AB
:1015C300080808C6C313C618C613C618C613C61818
:1015D300C613C6D5E0EA222518F8E43519F9222501
:1015E30018FAE43519FB222518FCE43519FD22C34A
:1015F300E0C696F608A3E0C696F608A3E0C696F6FC
:1016030008A3E0C696F622C0E0E493A36C7009D069
:10161300E0D0E0D0E00213EFA3A3D0E0222518101E
:10162300AF08F518400C15198008F5184002151974
:10163300D2AF22C3E09608A3E09608A3E09608A3DE
:10164300E096A2D265D03322E76670100809E766F8
:10165300700A0809E76670040809E76622E0667005
:101663001008A3E066700A08A3E066700408A3E00C
:101673006622181818E60846087009E62608700559
:10168300E633F4220822C3E4939608740193960880
:1016930074029396087403939622191919E709475C
:1016A300097009E727097005E733F4220922C3E02B
:1016B30096F008A3E096F008A3E096F008A3E0965E
:1016C300F022C3E697F60809E697F60809E697F6C7
:1016D3000809E697F622181818E4C396F608E49664
:1016E300F608E496F608E496F622E026F608A3E068
:1016F30036F608A3E036F608A3E036F622E627F628
:101703000809E637F60809E637F60809E637F62248
:10171300E493F608740193F608740293F6087403CD
:1017230093F622E657F60809E657F60809E657F650
:101733000809E657F622E056F608A3E056F608A392
:10174300E056F608A3E056F622E647F60809E64710
:10175300F60809E647F60809E647F6227004226010
:101763000D18C6C333C608C633C6D5E0F41822E63F
:1017730067F60809E667F60809E667F60809E66703
:10178300F622E026F008A3E036F008A3E036F008DE
:10179300A3E036F022E056F008A3E056F008A3E0F9
:1017A30056F008A3E056F022E4C397F709E497F74D
:1017B30009E497F709E497F722600D08C6A2E71337
:1017C300C618C613C6D5E0F322C6F4C608C6F4C6C7
:1017D30008C6F4C608C6F4C622C3E09608A3E0967A
:1017E30008A3E09608A3E09622C3E7960809E796C4
:1017F3000809E7960809E7962275D00075813F75B9
:10180300180175190400021044E6084608C313467C
:1018130008336002E633F422E7094709C313470993
:10182300336002E733F422600C08C6C313C618C63C
:1018330013C6D5E0F422E6F008A3E6F008A3E6F029
:1018430008A3E6F022E0F608A3E0F608A3E0F60812
:10185300A3E0F622CAC0E0E6F0A308DAFAD0E0FA81
:1018630022E0FCA3E0FDA3E0FEA3E0FF22EAF0A355
:10187300EBF0A3ECF0A3EDF022E0FAA3E0FBA3E08E
:10188300FCA3E0FD22E8F0A3E9F0A3EAF0A3EBF068
:1018930022ECF0A3EDF0A3EEF0A3EFF022E0F8A327
:1018A300E0F9A3E0FAA3E0FB22E5C754F84401F50D
:1018B300C77901222518F582E43519F58322E72734
:1018C30019471947194722E626184618461846228B
:1018D300C2AF75D69F0200002212150DC7C90512AB
:1018E300150D31CA0512150D97CB0512150DBAAB9F
:1018F3000712150DFE9D0512150D509E0512150DAF
:10190300AC9E0512150D3A9F0512150D969F0512F3
:10191300150DD0A20512150DFEA40512150D26A650
:101923000512150DA8FB0612150D12FC0612150D56
:1019330033FC0612150D71FC0612150DB6FC0612CA
:10194300150DDCFC0612150DE5FC0612150D93FDB5
:101953000612150DF7FD0612150D71A50712150DCB
:1019630040AB0712150D5BAB0712150DCDC7041263
:10197300150DACC80412150DACC90412150D80CA9F
:101983000412150D62CD0412150DF5CE0412150DBA
:10199300ADCF0412150DBED00412150D49D2041299
:1019A300150D24F00512150D32F00512150D43F136
:1019B3000512150DF3F10512150D7BF30512150D27
:1019C3003BF60512150DEAF50612150D74F606120F
:1019D300150D7FF70612150D9BF70612150D67A25D
:1019E3000712150D78A20712150D3DA30712150D49
:1019F3004CA30712150D57A30712150DFB7F0012F9
:101A0300150D79AC0712150DC8A60712150DD8A62A
:101A13000712150DEDA60712150D53A70712150D85
:101A23006FA30712150DF2A30712150D58A4071281
:101A3300150DE88E0712150D238F0712150D7F8FD5
:101A43000712150DD78F0712150D5E900712150D8E
:101A53009A900712150D8CAC0712150D9CAC07124A
:101A6300150DDFE10612150D42E20612150D91E286
:101A73000612150DBEE20612150D14E30612150D1E
:101A830082AB0712150DFE870712150D4888071242
:101A9300150DDE880712150D64890712150D95893A
:101AA3000712150DAD890712150D218A0712150DA1
:101AB300378A0712150D4A8A0712150D548A071221
:101AC300150D5FD30412150DABD80412150DDDD817
:101AD3000412150D09D90412150DB1D90412150DEF
:101AE300A7DC0412150D25E90412150D91E9041262
:101AF300150D41EA0412150D0CEB0412150D62ECE1
:101B03000412150D50ED0412150D57EE0412150DA8
:101B130055F00412150D88F00412150DF2F004129D
:101B2300150D19F10412150D96F20412150D08F393
:101B33000412150D3DF30412150D51F30412150D86
:101B4300C7F30412150D13B10512150DB9B3051220
:101B5300150D21B50512150DA8B70512150DE1B91F
:101B63000612150D0DBA0612150D7EBC0612150DC3
:101B7300BEBC0612150DFEBC0612150D12BD0612D3
:101B8300150D2BBD0612150D1CBE0612150DC1BE7B
:101B93000612150DD5BE0612150D96FE0412150D6F
:101BA300BAFE0412150DD3FE0412150D05FF04121F
:101BB300150D35FF0412150D62FF0412150DC4FF38
:101BC3000412150DD3FF0412150DDDFF0412150DBC
:101BD300EAFF0412150DD3820712150DF3820712C3
:101BE300150D32830712150D4D830712150D6C83E6
:101BF3000712150DD2830712150DDB830712150D7E
:101C030038840712150D5C840712150D1D85071204
:101C1300150D2A850712150D3B850712150D2BAAE5
:101C23000712150D43AA0712150D6FAA0712150DFA
:101C3300F4C30612150D4EC50612150D5CC506122A
:101C4300150D6FC50612150D84C50612150D99C520
:101C53000612150DACC50612150D20C60612150D7C
:101C630085C60612150D27C70612150DEBC70612FA
:101C7300150DFBC70612150D0AC80612150D2FA662
:101C83000712150D53A60712150D7BA60712150D86
:101C9300A3A60712150DC58C0712150DEC8C0712A0
:101CA300150D0A8D0712150D7D8D0712150D008078
:101CB3000712150D19800712150D25800712150D32
:101CC30039800712150D57800712150D6180071211
:101CD300150D6B800712150D7E800712150D0481FB
:101CE3000712150D79810712150DA8810712150D1D
:101CF300F6810712150D45820712150D6082071232
:101D0300150D6A820712150D7B820712150DBE820F
:101D13000712150D90A90712150D85BA0512150D99
:101D2300AFBA0512150DCCBA0512150DDFBA05129F
:101D3300150DF5BA0512150D53BB0512150D8BBB09
:101D43000512150D7FBF0512150DC4C00512150D23
:101D5300F7C00512150D5AC10512150DBAC20512A9
:101D6300150DE2C20512150DF7C20512150D07C3B5
:101D73000512150D4BC30512150DA6C30512150D3E
:101D8300B6C30512150D0D9F0712150D279F0712D8
:101D9300150D4F9F0712150D689F0712150D8C9F88
:101DA3000712150DAA9F0712150DC19F0712150DD6
:101DB300EF9F0712150D0AA00712150DFCAA0712B3
:101DC300150DD4E50612150DE4E50612150DE9E629
:101DD3000612150D1BE70612150D41E70612150D28
:101DE30064E70612150D7BE70612150DB5E706121B
:101DF300150D1AE80612150D5CE80612150D9BE881
:101E03000612150DCCE80612150D03E90612150D81
:101E1300FB860612150DD1870612150DFC870612D7
:101E2300150D19880612150D14890612150D5689FC
:101E33000612150DC4890612150D168A0612150D04
:101E4300858A0612150DBC8B0612150DB98C061268
:101E5300150DB1D90612150D06DA0612150D86DA1F
:101E63000612150D99DA0612150DC0DA0612150DB4
:101E730063DB0612150D44DC0612150D36D605126A
:101E8300150D61D60512150D2CD70512150D73D737
:101E93000512150D04D80512150D7DDB0512150D60
:101EA30035DD0512150D0D9A0312150D4D9A03120A
:101EB300150D4C9C0312150D729C0312150D659F95
:101EC3000312150DA1A00312150D0CA40312150D79
:101ED30076A40312150D10A50312150D63A50312A5
:101EE300150DCBA50312150D1BA60312150D4DA63B
:101EF3000312150D50A60312150D60A60312150D3E
:101F030072A60312150DC1A60312150D7EA80312A6
:101F1300150DEBA80312150D31A90312150DCDA94B
:101F23000312150D53AA0312150D4FAC0312150D11
:101F3300EEAD0312150D35AF0312150D19B00312D3
:101F4300150DCAB10312150D82FE0512150D9CFE67
:101F53000512150DDEFE0512150D11FF0512150DE7
:101F63002BFF0512150D44FF0512150D86FF0512F3
:101F7300150DBBFF0512150D7B990612150DAC99B6
:101F83000612150D009A0612150DD09A0612150D9C
:101F9300069B0612150D339B0612150D859B061223
:101FA300150DA39B0612150DC79B0612150DED9B70
:101FB3000612150D6F9C0612150DF99C0612150DD0
:101FC3002A9D0612150D709D0612150D8E9D061283
:101FD300150DB29D0612150DD99D0612150D0F9EF6
:101FE3000612150D6E9E0612150D909E0612150D06
:101FF300EF9E0612150DFE9E0612150D379F061253
:10200300150D5E940512150D98940512150DD795AF
:102013000512150D07970512150DD79D0512150D00
:10202300469F0612150D4DA00612150D8EA0061221
:10203300150D02A10612150D5DA10712150DCEA1F6
:102043000712150D33A20712150D00800512150D89
:102053001F810512150D2D820512150D74830512AE
:10206300150DCC830512150D11840512150D1F8452
:102073000512150D4F840512150DE5840512150D76
:1020830041860512150D4D870512150DE5880512BC
:10209300150D688A0512150D96EC0612150DF1EC57
:1020A3000612150D2AED0612150D12EF0612150D67
:1020B3009EAF0612150DE3AF0612150D19B00612E9
:1020C300150D40B10612150DE5B20612150D52B3EA
:1020D3000612150DA2B40612150D738A0512150DFD
:1020E300908B0512150D068C0512150DFF8C05122C
:1020F300150D4B8D0512150DC6900512150DA691E4
:102103000512150DE8910512150D29920512150DED
:102113007E920512150D5E930512150DBC990712DB
:10212300150DF9990712150D289A0712150D3C9AEA
:102133000712150DB1CC0612150DC3CD0612150DE0
:10214300A6CE0612150DC7CE0612150D90CF061298
:10215300150D32D00612150D63D00612150DE3D0FE
:102163000612150DF8DE0512150D5ADF0512150DB1
:10217300EEDF0512150D7DE10512150DBEE4051206
:10218300150DD4E40512150D96E50512150D209BCA
:102193000712150D329B0712150D469C0712150DDC
:1021A300499C0712150DC79D0712150DFD9D0712BA
:1021B300150D179E0712150D599E0712150D699ED1
:1021C3000712150D039F0712150D00800612150D3A
:1021D3000A800612150D44800612150DAD800612F5
:1021E300150DCA800612150D6C810612150D758129
:1021F3000612150DBA810612150DE3810612150D8F
:10220300F0810612150D61820612150DEC8206127D
:10221300150D3A830612150D78830612150DDD830D
:102223000612150D00840612150D77840612150D7E
:10223300CE840612150D09850612150D3E8506126C
:10224300150D50850612150D62850612150D818533
:102253000612150D8A850612150D45860612150DF3
:1022630091860612150DCF860612150DE9BE0612CC
:10227300150D29C00612150D4CC00612150D5DC0B3
:102283000612150D5CC20612150D7CC20612150D41
:102293005EAC0712150DE0F20612150D24F30612BB
:1022A300150D6CF30612150D52F50612150DE1F519
:1022B3000612150D5BA80712150D00800412150DEB
:1022C30024810412150D5E810412150D0883041276
:1022D300150D32830412150DA7850412150DE7851C
:1022E3000412150D7D870412150D1A880412150D9D
:1022F3006C880412150D0F890412150D47890412F9
:10230300150D89890412150DF88A0412150D468CD2
:102313000412150D778E0412150DA58E0412150DDA
:10232300CC8E0412150DD58E0412150D258F0412B3
:10233300150DB78F0412150DE6920412150D69934E
:102343000412150DE8FF0112150DDBDD0612150D44
:10235300F1DD0612150D95DE0612150DD4DE0612FB
:10236300150DF1DE0612150D22DF0612150D6FDFB6
:102373000612150DA2DF0612150DDDDF0612150D6F
:10238300D2E10612150DB78D0612150D5D8F0612DB
:10239300150D9E900612150DB6900612150D0BD154
:1023A3000612150D42D20612150DA1D30612150DF4
:1023B30016CD0512150D42CD0512150D7CCD051256
:1023C300150D42D00512150D9AD00512150DE4D046
:1023D3000512150D08D10512150D85D20512150D1F
:1023E300E2D20512150D3FD50512150DA2E7051210
:1023F300150DC9E80512150DC8E90512150D1EEBDB
:102403000512150D43EC0512150D1DED0512150DE5
:10241300C8920712150D76930712150DB66D0012AB
:10242300150D7B6E0012150D866E0012150D376F9C
:102433000012150D966F0012150D8D710012150DFA
:10244300FD710012150D02740012150D3B7400127C
:10245300150DE4760012150D0C770012150D8E770D
:102463000012150D09780012150D93790012150D40
:10247300E8790012150D667A0012150D437F0012DC
:10248300150DFAA40612150D21A50612150D7CA72C
:102493000612150DA3A70612150DF8A70612150DA2
:1024A3002AA90612150DA6A90612150D698507128C
:1024B300150D81850712150DCC860712150DD386D0
:1024C3000712150DFC860712150D71A40712150DC1
:1024D300D0A40712150D0EA50712150D4FA507124F
:1024E300150D6EAA0612150D94AA0612150DD4AB7E
:1024F3000612150DC9AC0612150DF0AC0612150D1A
:1025030089AD0612150DDDAD0612150DF8AE0612D6
:10251300150D9A930612150D3C940612150D5C9534
:102523000612150DAE960612150D62980612150DBC
:102533005ADE0412150DAEDE0412150DD8DF041297
:10254300150D04E10412150DF2E10412150D8EE4CC
:102553000412150D45E60412150D90E60412150D2F
:102563009EE80412150D3AFC0212150D8DFC0212A1
:10257300150D10FD0212150D9CFF0212150D769C10
:102583000712150DF09C0712150D0B9D0712150D63
:10259300A3940712150DB8950712150D209607126F
:1025A300150D77960712150DC2960712150D129782
:1025B3000712150D2D970712150D2E980712150DDD
:1025C30089980712150D85990712150D678A071249
:1025D300150DD08A0712150D468B0712150D6E8B3C
:1025E3000712150DB6930412150D27940412150D39
:1025F3008E940412150D12950412150D0D960412E6
:10260300150D3C980412150D2B990412150D96996E
:102613000412150DD4990412150D1A9B0412150DED
:10262300D19B0412150D1A9C0412150D849C0412DF
:10263300150DD59C0412150D659E0412150D9F9E54
:102643000412150DE4A70712150D2EA80712150D78
:1026530061F70512150DBEF70512150D9CF805124D
:10266300150DD0F90512150D00FA0512150D48FBCD
:102673000512150DA5FB0512150D63FC0512150DAD
:10268300DBFC0512150DDFAB0712150DF2AB0712BC
:10269300150D3DA00712150D4CA00712150DACA08A
:1026A3000712150D03AC0712150D09AC0712150D12
:1026B3000FAC0712150D29BC0412150D94BC04129E
:1026C300150D6DBD0412150DC8BE0412150D37BFCF
:1026D3000412150DE5BF0412150DBEC00412150D2D
:1026E300ADC10412150D00C30412150D77C50412F4
:1026F300150D01400012150D9AB80312150D6F4008
:102703000012150D79400012150D0C410012150D24
:1027130048410012150D04420012150D1742001214
:10272300150D67420012150DF6420012150D2C43CC
:102733000012150DAE430012150D5D450012150D67
:1027430031470012150D17480012150D6949001283
:10275300150DBF4B0012150D284D0012150DC54D5B
:102763000012150D6D520012150D5B530012150D5D
:10277300F9530012150D25540012150DC154001202
:10278300150DD6540012150DFA540012150D65C916
:102793000512150D7D550012150DA7550012150DC7
:1027A30024570012150D45570012150DCB57001273
:1027B300150D71580012150DB8580012150D2B592F
:1027C3000012150DB7590012150D1B5A0012150DE5
:1027D3007B5A0012150D115B0012150D8C5B001254
:1027E300150DBF5B0012150D215C0012150D835DE5
:1027F3000012150DF35D0012150DA25E0012150DEA
:10280300F85F0012150D90600012150DFC600012A8
:10281300150D3F630012150DCB640012150DF66400
:102823000012150DDC660012150D72680012150DED
:102833007B690012150DC0A10412150D77A20412B5
:10284300150D7EA30412150DFCA30412150D3EA550
:102853000412150D5FA50412150D17A60412150D0C
:10286300C2A60412150DA2AA0412150DBEAC0412C1
:10287300150D25AE0412150DB8AA0712150D00800B
:102883000312150D58800312150DDE800312150D6A
:10289300F0810312150D3D820312150D23830312DC
:1028A300150D3A830312150D8C830312150DC48382
:1028B3000312150DD7830312150D2D840312150D65
:1028C30086840312150D9E840312150D0E870312C1
:1028D300150DA5870312150DCF870312150D078854
:1028E3000312150D2D8A0312150D738A0312150D8C
:1028F300BD8A0312150D918B0312150DD28B031292
:10290300150DF58B0312150D3C8C0312150D5E8C02
:102913000312150DDF8C0312150D6C8D0312150DAB
:10292300C68D0312150D0E8E0312150D838F031220
:10293300150DFF910312150D8C920312150DB8930B
:102943000312150DF3930312150DC0940312150D05
:1029530000950312150D03950312150D0D95031222
:10296300150D20950312150DA1950312150DD7957D
:102973000312150D03960312150D2A960312150D56
:102983004E960312150DE5960312150DFE960312CE
:10299300150D31970312150D51970312150D8E97CF
:1029A3000312150DC5970312150DC4980312150DC7
:1029B300F7990312150D5DA70712150D69A70712E5
:1029C300150DAFA70712150DFDFF0312150DA1CBB2
:1029D3000312150DC4CB0312150D9BCC0312150D59
:1029E300E4CC0312150D3CCD0312150D96CD031245
:1029F300150DE2CD0312150D58CE0312150DE6CEBB
:102A03000312150D5ECF0312150DA1CF0312150D81
:102A13007ED30312150DC5D50312150DF8D5031278
:102A2300150D76D60312150DFBD60312150DD3D74C
:102A33000312150DFDD80312150DE8D90312150D58
:102A4300C5DA0312150D01DC0312150DA5DD031202
:102A5300150D37DE0312150D3EE00312150DABEC19
:102A63000212150D4BED0212150DB5ED0212150DE7
:102A73005CEE0212150DC0EE0212150DF3EF0212F9
:102A8300150D19F10212150D92F10212150D6AF3CB
:102A93000212150D0AF40212150DADF40212150DF2
:102AA3000CF50212150DC7F50212150D8DF7021262
:102AB300150D30F90212150DDCF90212150DF1FA9C
:102AC3000212150DCEE00312150D46E10312150D8A
:102AD3008EE10312150DD2E10312150D1BE2031251
:102AE300150D65E20312150D9AE20312150D18E395
:102AF3000312150D72E30312150DCBE40312150D2A
:102B030054E50312150DB0E50312150DCAE50312C2
:102B1300150DF1E50312150D49E60312150DB3E783
:102B23000312150DD2E70312150DFAE80312150D62
:102B330077E90312150DE4E90312150D46EA0312B2
:102B4300150DF6EA0312150DC8EC0312150DB3EDBE
:102B53000312150DADEE0312150DB3EF0312150D90
:102B6300CFF00312150DDDF00312150DB6F10312AC
:102B7300150D56F20312150D9AF20312150DAFF24D
:102B83000312150DC0F30312150D63F40312150D93
:102B9300BBF40312150DDAF80612150D13FA06121B
:102BA300150DD0FA0612150D34FB0612150DBCEFE8
:102BB3000612150DD7EF0612150D1BF00612150D93
:102BC30041F00612150D67F00612150D7FF006127F
:102BD300150DE2F00612150DF7F00612150D19F298
:102BE3000612150D22F20612150D2BF20612150D03
:102BF30034F20612150D3EF20612150D63D50612B8
:102C0300150D43D90612150D48D90612150D4AD9CB
:102C13000612150D55910712150D22AC0712150D4D
:102C2300CDA80712150D72AA0712150DD3FF0212B4
:102C3300150DB4FB0112150D657F0012150D8F7F65
:102C43000012150D74FE0612150DD4FF0312150D97
:102C530040AC0712150D2EA90712150DDBA907129B
:102C6300150D5BE90612150DC5D70112150D1CD8FC
:102C73000112150D88D80112150D14D90112150D65
:102C8300CAD90112150D12DA0112150D2BDA011230
:102C9300150D4EDA0112150D70DA0112150DAEDAAB
:102CA3000112150DFDDA0112150D28DB0112150DA8
:102CB30086DB0112150D2DDC0112150DD5DC011279
:102CC300150D51DD0112150D1EDE0112150D6ADE03
:102CD3000112150DF2DE0112150D2BDF0112150D78
:102CE300BCDF0112150DCDDF0112150D3FE00112FE
:102CF300150DD8E00112150D42E10112150D32E256
:102D03000112150D57E20112150D54E30112150DB1
:102D130061E30112150D6AE30112150D53E501126A
:102D2300150D6FE60112150D00E70112150D71E780
:102D33000112150D4BE90112150D16ED0112150DBA
:102D43002AED0112150D3AED0112150D44ED011294
:102D5300150D4DED0112150D56ED0112150D60ED1A
:102D63000112150D8FED0112150DBDED0112150D9B
:102D7300C8ED0112150DECED0112150D10EE011247
:102D8300150D82EE0112150DCBEE0112150DE7EEB6
:102D93000112150D58EF0112150DA4EF0112150DB7
:102DA300EDEF0112150D2BF00112150DACF0011210
:102DB300150D77F20112150D16F30112150DDEF341
:102DC3000112150D6AF60112150DBFF60112150D4C
:102DD300E7F60112150D1AF80112150D5FF801122D
:102DE300150DB4F80112150D62F90112150D07FA4C
:102DF3000112150D3CFA0112150DDCFA0112150D25
:102E030058FB0112150D9C860112150DCE86011279
:102E1300150D02870112150DB6880112150D8A8949
:102E23000112150DE9890112150DFF8A0112150D05
:102E33004B8B0112150DE88D0112150D5D900112DA
:102E4300150DA9910112150D41920112150D4D9207
:102E53000112150D96920112150DC9920112150D4D
:102E630055930112150D67940112150DA8950112C2
:102E7300150DA7960112150DD1960112150D3C974C
:102E83000112150D95970112150D08980112150DD4
:102E93003E9A0112150DC49B0112150DAF9C011230
:102EA300150DFD9D0112150D35A00112150D2CA355
:102EB3000112150D3BA30112150DCFA30112150D20
:102EC3007AA40112150DBDA40112150D06A5011258
:102ED300150D56A50112150DC3A50112150D2FA62B
:102EE3000112150D4BA60112150D7AA60112150D2F
:102EF300B9A60112150DA1A70112150D50A80112B3
:102F0300150DC7AA0112150DF9AB0112150DC8ACA9
:102F13000112150D4AAD0112150D96B10112150DD1
:102F2300C5B10112150D20B20112150D53B20112D4
:102F3300150DAEB20112150DCAB20112150D2BB348
:102F43000112150D7BB30112150D2AB40112150DD3
:102F5300EDB40112150DB5B50112150D01B801122D
:102F6300150D8DB90112150DE4BA0112150D00BC32
:102F73000112150D03BC0112150D32BC0112150D02
:102F830021BE0112150DEABE0112150D2BBF011250
:102F9300150D81C00112150DF7C00112150D2AC1BF
:102FA3000112150D8EC10112150DAFC30112150DBE
:102FB3000EC40112150DE4C40112150DF8C401125B
:102FC300150D0CC50112150D39C50112150D69C575
:102FD3000112150D0DC70112150D0AC80112150DA9
:102FE30058C80112150D7FC80112150D5AC90112D7
:102FF300150D00CA0112150D86CB0112150DCDCB8F
:103003000112150D3ACC0112150D8FCD0112150DBC
:1030130038CE0112150D6CCE0112150D84CE01129E
:10302300150D27CF0112150DA3D10112150D4BD389
:103033000112150D6FD30112150D8DD30112150D4C
:1030430059D40112150DA7D70112150D00800212D4
:10305300150D32800212150DB2840212150D018571
:103063000212150D47850212150DEA850212150D80
:103073004F860212150D93860212150DFA8702125E
:10308300150D26890212150D238D0212150DA28D21
:103093000212150DC88E0212150D2B8F0212150D7B
:1030A30077900212150D0F930212150D9C930212C5
:1030B300150DA6930212150DCE930212150D9694BB
:1030C3000212150D2B950212150D54950212150DB2
:1030D30081950212150DD6970212150DA3980212AF
:1030E300150DE2980212150D64990212150D0F9A2F
:1030F3000212150D419A0212150D8C9A0212150D2A
:10310300C59A0212150D149B0212150D709B021223
:10311300150DF29B0212150D579C0212150DCF9C33
:103123000212150D789E0212150D709F0212150DD5
:10313300B1A00212150D05A40212150D61A602120B
:10314300150D1AA70212150D62A70212150D43A938
:103153000212150D7EA90212150D87A90212150D73
:1031630090A90212150D9BA90212150DBAA90212FC
:10317300150D6DAA0212150DCAAA0212150DD4AAB5
:103183000212150DDEAA0212150D2AAB0212150D3D
:1031930072AB0212150D76AC0212150D0FAD0212B1
:1031A300150DD6AD0212150D00AF0212150D2BB081
:1031B3000212150D21B10212150D39B10212150DAE
:1031C3006DB10212150D8BB10212150DD3B102129E
:1031D300150D0CB20212150DC3B20212150D84B3F4
:1031E3000212150DF7B30212150D73B40212150D69
:1031F3000FB50212150D35B60212150DF1B60212F6
:10320300150D91B70212150D7EB80212150DD6B821
:103213000212150D9CB90212150DBFB90212150D3C
:10322300D4BA0212150D1FBB0212150D7BBB02127D
:10323300150DE3BB0212150D07BC0212150D2FBCB1
:103243000212150D74BC0212150D98BC0212150D55
:103253001CBD0212150D05BE0212150D4ABE021247
:10326300150D73BE0212150D11BF0212150D7CBF91
:103273000212150D8ABF0212150DB6BF0212150DEB
:1032830097C00212150D54F50312150D8CF5031298
:10329300150DADF50312150DEFF50312150D53F6CC
:1032A3000312150D5DF60312150D6DF60312150DC0
:1032B300A4F60312150D4DFA0312150D15FC031296
:1032C300150DF9FD0312150D9BFE0312150D25FFB8
:1032D3000312150D87C20212150DEBC20212150D52
:1032E30049C30212150D94C30212150DAFC3021286
:1032F300150DD6C30212150DF3C30212150DFFC32C
:103303000212150D90C50212150DA9C50212150D55
:1033130025C60212150D38C60212150D48C6021233
:10332300150DECC60212150D58C80212150D6BC906
:103333000212150D0BCA0212150D15CA0212150D34
:1033430094CA0212150DA5CA0212150DE4CA02127F
:10335300150D12CB0212150DDFCB0212150D36CC53
:103363000212150D6FCC0212150DC5CC0212150DEC
:10337300E3CC0212150D31CD0212150DFCCD021254
:10338300150D4ACE0212150D97CE0212150D1ACF46
:103393000212150D44CF0212150D7ACF0212150D2C
:1033A30089CF0212150DE8CF0212150D60D002125B
:1033B300150DA1D00212150DF1D00212150D1CD15D
:1033C3000212150D36D10212150D50D10212150D30
:1033D30025D20212150D2FD20212150D6AD2021236
:1033E300150D7AD20212150D83D20212150DD4D205
:1033F3000212150DE8D20212150D0AD40212150D90
:103403001FD40212150DB2D40212150D26D50212C5
:10341300150DCBD50212150DD6D50212150D36D7C3
:103423000212150D52D70212150D9ED70212150D59
:103433000CD80212150D3ED80212150D58D80212DF
:10344300150D9AD80212150DEDDA0212150D85DB52
:103453000212150DFCDB0212150D59DE0212150DB9
:1034630071DE0212150D74DE0212150D80DE0212DA
:10347300150D94DE0212150D9CDE0212150DD3DE1E
:103483000212150DC7DF0212150D51E00212150DC0
:10349300D3E00212150D53E10212150D2AE20212B6
:1034A300150D4CE20212150DE5E20212150D42E371
:1034B3000212150D45E30212150DB4E30212150DA8
:1034C30000E50212150D13E60212150D9EE6021217
:1034D300150DB1E70212150D76E80212150DA7E8D6
:1034E3000212150DCDE80212150DD6E80212150DC4
:1034F30005E90212150DB5E90212150D65EA02126E
:10350300150DD8EA0212150D7BEB0212150DEEEB29
:103513000212150D2DEC0212150D76EC0212150D8B
:1035230005B80312150DB8B70312150D36B70312FC
:10353300150DBBB60312150D3BB60312150DF1B5F0
:103543000312150D95B50312150D44B50312150D90
:1035530007B50312150DC1B40312150D86B403127A
:10356300150D7CB40312150DEEC70512150DB7C664
:103573000512150D5FB40312150D87B30312150D54
:10358300B8C50512150D6FC50512150D0BB3031242
:10359300150D94CA0612150DBAC90612150D40C9A8
:1035A3000612150D43C80612150D50BB0412150D56
:1035B30076BA0412150DACB90412150D1BB804121A
:1035C300150DE4B70412150DB6B70412150D6AB73D
:1035D3000412150DD3B60412150D43B60412150DBE
:1035E3001DB60412150DD2B50412150D9CB50412A7
:1035F300150D1FB50412150DBAB40412150D69B4D7
:103603000412150D91B30412150D01B30412150D17
:10361300B5B20412150D30B20412150DEBB104123C
:10362300150DCFB10412150DE6C30512150D77B0B4
:103633000412150D36CA0312150D0BC70312150D0F
:1036430093C40312150D81C20312150D45C2031253
:10365300150D3FC10312150DE7BE0312150D73BE01
:103663000312150D49B00412150D16B00412150DF1
:103673009AAF0412150D1FB80612150D38BD0312AB
:10368300150D84B60612150D92B50612150DC0B4AC
:103693000612150D4BFE0412150DF7BC0312150D82
:1036A300F2FD0412150D60550012150DBDFD041237
:1036B300150D88FD0412150D54FD0412150DE7FCBC
:1036C3000412150DCFFC0412150DAAFC0412150DDE
:1036D3007BF90412150D4EF70412150D4EF5041265
:1036E300150DD4F40412150D85F40412150D3FF4D1
:1036F3000412150DE1F30412150D3FAF0512150D5C
:1037030092AE0512150DA3AD0512150D95B9031251
:10371300150D07AC0512150DCAA90512150D34A810
:103723000512150D9CA70512150D8DA70512150D74
:103733000D400000000080FB8F0001005D16870034
:103743000100C918350004008E18250002009218E4
:103753002600020094182700020096182800010092
:10376300A01829000100A11884000400A2188600F3
:103773000100A6182A000100A7182B000100A818B1
:103783002C000100AC182D00080040162E0001008B
:10379300AD182F000100AE1830000100AF18310042
:1037A3000100B01832000100481633000100491629
:1037B30034000100B118360001004A163800010038
:1037C300B21839000100AB1883000200C718630068
:1037D30001005A1664000100A91865000100AA1827
:1037E3006D0001005B1671000800381666000100C9
:1037F300C61843000100B71844000200B81845007A
:103803000100BA1846000200BB1847000800521610
:1038130048000100BD184B000100BE180400010060
:10382300CA18A1000100CD1837000100CC18880088
:103833000100CB183C0001004B163D000100B318FA
:1038430049000200BF18670001005C164D0002002A
:10385300C1184E000100C3184F000200C4183E00F7
:103863000100511651000100B41852000100B518AF
:1038730053000100B618540001004C16000000006C
:1038830000000000000020019786000001002001D5
:1038930097860000020020019986000003002001A2
:1038A30096860000040042016D800000050042017D
:1038B3007E80000006004201A08000000700200176
:1038C300AB800000100042018F8000001100200136
:1038D3006C0A000000404201A08000000080420109
:1038E300D2810600000010110000070000003033F1
:1038F30000000700100030330000070001402033B0
:1039030000000700024020330000080000002033BD
:1039130000000A000000E23300000A00010018332F
:1039230000000C005500393300000C001C0042332A
:103933000000110004004233000011004300233350
:10394300000011005100101100001100550010116A
:103953000000110067001811000011006F0018111A
:103963000000120055002101000014000E00422245
:1039730000000004000021040000020400002904E8
:1039830000000304000029040000050400002904CA
:103993000000000000000100FA360200FA360300BE
:1039A300FA360400FA36050020200600000007005E
:1039B3009C1908001624000000000A0000000B00F8
:1039C3000A240C0292350D0000000E00FA360F0097
:1039D300FA360000000000000000000000001300A1
:1039E3002A250000000015004C1E16004C1E17016E
:1039F3002A251801E81819007C241A007C241B00CE
:103A03000C251C01581B1D01581B1E00A6241F0159
:103A1300763620009E262100D8192200A01E2300FE
:103A2300923500000000000000002601AA232701B0
:103A3300EC262801982329004A262A00E01A2B02A3
:103A43000A242C0080262D0280262E01C0192F0067
:103A53001E193000C424310000003200000033007E
:103A6300000034000000350000003600000037007D
:103A73000000380000003901581B3A003E263B0085
:103A8300E6233C0000003D00000000013636010142
:103A93000001020100010301000104010606050201
:103AA3000000070100340801000F090401010D01A2
:103AB30000FF0E08000017020000190100FF1A01A1
:103AC30000011B0100FE1C0100081D0200001F0174
:103AD300000120010001210200002301000F240244
:103AE30000002601000127010008280200FF2A0127
:103AF30000072B0102402C0100002D0100012E01C3
:103B030000012F0100FF30010B1D310800003A01B5
:103B130000083B01000F3C0100013D0100FF3E0492
:103B2300000042040000460400004A0400004E0462
:103B3300000052040000560400005A040000002054
:103B4300202020202020202028282828282020204A
:103B530020202020202020202020202020202088FA
:103B6300101010101010101010101010101010045E
:103B730004040404040404040410101010101010AE
:103B830041414141414101010101010101010101A2
:103B930001010101010101010101101010101010B8
:103BA3004242424242420202020202020202020272
:103BB3000202020202020202020210101010206A24
:103BC300007800D225D825DE256C00F0007E258400
:103BD300258A256B00F00096259C25DE256600F0DE
:103BE3000096259C25DE2567001400A825AE25B484
:103BF3002569001400BA25C625C025EE22E8034234
:103C03002560255A25640001000000000078256323
:103C130000010000000000782562000100000000A0
:103C23000078256100010000000000782570000184
:103C33000000000000782501037103010301030163
:103C43000301030103220302030103100300030022
:103C530003000300030003000300034203000324E3
:103C630003060300030003040312032503230325B0
:103C730003230304030403000300030003440300BA
:103C830003000323030003650321003503810300BD
:103C930003050300030003000300032503230303B9
:103CA300027102300160021102700201020202027B
:103CB300028002100261023A004100630273027241
:103CC30002620243020002130238000002000204EF
:103CD3000212020002000200020002040204023780
:103CE3000037003C02440200023900000200026572
:103CF30002000235028102000205028202830200F1
:103D030002010171010101010111010101310101EF
:103D13000101018001100161013B00140063017383
:103D2300017201620143010001130106013D0135E6
:103D3300000401120100010001000100010401045B
:103D430001330133013C014401320136000001001B
:103D53000165010001350081010001050182018334
:103D63000100010300710030016000110070003197
:103D7300022003500480001000610000001400635F
:103D8300007300720062004300000013000600008D
:103D93000000000400120000000000000000000406
:103DA300000400370037003C02440000000000001C
:103DB30000000065000000350081000000050000E0
:103DC300008300000036000100060000000F000021
:103DD300000000000000000000000003FFFF0000DF
:103DE3000403FFFF0000FFFF0FF4010005C40403F9
:103DF30020000100000B0000000000000000030190
:103E03000F000000000000000000000000000000A0
:103E1300000000000000000000000000000000009F
:103E2300000000E2271E28E8271027EE272428EEAB
:103E3300273028F4271027EE272428FA27102700F5
:103E4300281027062810270C2810271228102718B7
:103E53002810270000000000000000000000000000
:103E6300000000000000000000000000000000004F
:103E7300000000000000000000000000000000003F
:103E830000762A1300462A0100762A0200EC290351
:103E930000F2290400F8290500FE2906000A2A3049
:103EA30000222A33002E2A3400342A11003A2A141D
:103EB30000402A15001C2AFFFF00000A0000000230
:103EC30000000004000000080000001000000020B3
:103ED300000000400000008000000000010000001E
:103EE30002000000040000000800000010000000B1
:103EF3002000000040000007ECFDFDFDECDCDCCC05
:103F0300BCACAC9C9C8C7C7C6C6C5C5C5C4C4C3C1E
:103F13003C2C2C1C1C5100100000550010000067A5
:103F2300001800006F001800000400420000430066
:103F330023000003EAF5E5D5D5C5B5A59595858597
:103F43007575656555554545353525251515050A99
:103F5300BE30028E3005A0300794300C76300D82CF
:103F630030FF000000160F00000B150B02000222A9
:103F73000F3300000E01030507090B0D0F000204A8
:103F830006080A0C0D5A6967426565416C6C6961E4
:103F93006E63653039303017181921301B1D1F30FF
:103FA30000034A49434E181A250502000119161841
:103FB30016161823030000393D3F373C3C362C448A
:103FC3002D303016181920231A1C1E300C0E020B2C
:103FD300040B0A0708000F02040201010101090290
:103FE30000BE040AE80300000E00E8031E04280CC8
:103FF3001E05FF100804090822040303040AC082F3
:10400300C083E9901524F002421074F4120E648AFE
:10401300088B09EB5480604D800EEEFAEFFB1227FC
:104023005EEEFAEFFB1221F4901524E0F91222065A
:104033008A0A8B0BAE0AAF0BEE4F60208E828F8302
:10404300E0641A60D5EEFAEFFB12270AE9F974FF70
:104053006960CEEEFAEFFB1221FA80CCAA08E509DB
:104063006480FB80047A007B000243A274F7120E83
:10407300647AFF0253F174F6120E64E9FEEAFF7AE2
:10408300047B001246F8A808A909EA496034EF8ABC
:10409300828B83A3A3A3F0EE8A828B83A31240FDBA
:1040A300E4F0A3F090153112471D7009901531E823
:1040B300F0A3E9803FE0FB8A828B83A3A3A3E06F95
:1040C300700479008031EAFCEBFD8A828B8312470E
:1040D3001D70E474FF6F700C8C828D83124104E4B5
:1040E300F0A38010901531125B82901531124104B8
:1040F300EAF0A3EBF079010254E9A3F08A828B83FF
:10410300221266D68882898322C082C083EA12691A
:10411300693BF583E0FA9015318004888289831224
:1041230059B1601C88828983A3A3A3E0FBEA6B6077
:104133000574FF6B70E588828983A3A3E0F980028D
:1041430079FF02421074F4120E64EAFEEBFF8A82D6
:10415300F583125B8212270AE9F50874FF6970037D
:104163000241FF7A197B001221EEEA4B70030241F0
:10417300FF8A828B83743412571AA3A3EA2402FCA6
:10418300E43BFD74061214668E828F83124DAE12C9
:1041930066B18A828B83A3A3A3A3A3A3A3A3ECF0F7
:1041A300A3ED124DBEA3A3A3A3A3EA240AFCE43BFD
:1041B300FD740C1214668E828F83125C1CC8126904
:1041C3006938F583E0C0E0EA2416F582E43BF58321
:1041D300D0E0F0EE240CF8E43FF98882F583126610
:1041E300B5EA2417F582E43BF583ECF0A3EDF08800
:1041F300828983E4F0A3F0A9081221FA790102432A
:10420300A2C082C08390152F125B828000D083D01E
:104213008202150A74F4120E648A088B09ECFEED0F
:10422300FF7A081242B57004791080351242E7A371
:104233001242D1740C1218B7126CBCA3A3A3A3121D
:104243006DAE90152912471D901529601112470074
:104253008003EAFCEB12471870F88C828D831242BC
:10426300C50243A274F4120E6489088A09ECFEEDB8
:10427300FF7A0A1242B57004791080331242DCE4EB
:10428300F0A31242CBE5091242CBA3EEF0A3EFF069
:1042930090152B12471D90152B60111247008003B8
:1042A300EAFCEB12471870F88C828D831242C50228
:1042B30043A27B001222A28A0A8B0BA80AA90BEA4B
:1042C30049221266D67900221253E2A3A322E509FA
:1042D3001253E7EEF0A3EFF0221242E78A828B83B8
:1042E300A3A3A3228A828B83E4F01240FDA3A3E558
:1042F30008F02274F2120E64EAFEEBFF8C088D09BB
:104303001227708B0DA90DEA4960198A828B83A34A
:10431300A3A3EEF0A3EF1253DEE508F0A3E509F043
:10432300790080027901025B7874F4120E6474F7E9
:10433300121620E9FE8518828519837401F0EC704A
:1043430006EDC39406404D74036A4B604774011233
:1043530015DA880A890B780A12152A7C127D007AED
:10436300007B00EE1243A7121558E9601CE4F50A1E
:10437300F50B780A12152A74031215EA7402121542
:10438300E21227B87402121558851882851983E042
:104393006401700479018002790074091215587F51
:1043A3000402121AF912277674022274E8120E64B8
:1043B30074FA12162089128A168B178C088D09122B
:1043C30036C48A148B15EA4B7005790202453DAA5F
:1043D30008AB09A9121236A6E9F50FA2E6401C9014
:1043E300152F1259B16014E82419F582E439F583C5
:1043F300E064017006E50FD2E6F50F7C067D0079D7
:1044030000AA18AB191221DC741F1218B7124DB68B
:104413006009E054FCF0E044018003E054FC126DB9
:10442300941259B1602B741E1218B7E0FE8882896A
:1044330083A3121321EEFD74021218B7E05403FC98
:10444300AA08AB09A91212272E7402121558E97093
:1044530005790102453D74221218B71259B1601251
:10446300851882851983E04404F074021218B71288
:1044730066D274201218B7124DB66005E044088066
:1044830003E054F7F074211218B7124DB66005E03B
:1044930044108003E054EFF074241218B7E0C0E036
:1044A30074041218B7D0E0F074051218B7EEF07860
:1044B30003851882851983E0540460027805742506
:1044C3001218B7124B4AE82510FEE43511FF1247C4
:1044D300EE6063AC0AAD0BAA18AB1912276A7427F6
:1044E3001218B7125B08121526AC10AD11125D70CD
:1044F300121558750C1E780C12152E750C27750D98
:1045030015780C12152A780A12152A8E0C8F0D783D
:104513000C12152A780812152AA90FAC14AD15AA86
:1045230016AB171236D07409121558E9FEAA0AAB56
:104533000B1222A880027E10EEF974068004EEF9B5
:1045430074021215587F1002121AEEFCEFFDAA1026
:10455300AB11A90A122734740B2274EA120E647485
:10456300FE121620890B8A148B158C0E8D0F7E007C
:104573007F00750A0074181218B7124B4A80111283
:10458300470E1227C48B09EE2AFEEF3509FF050AF1
:104593001266B9502EE50A75F006124B012403FE8C
:1045A300E43FFFA3A3E070E60EEE70010F8882895B
:1045B30083A3A3A3A312471D8882898360C11259D1
:1045C3002280C2EEFAEFFB1246F88A0C8B0DEA4BFF
:1045D30070030246ED750A008030A818A9198812E5
:1045E3008913781212152A780812152A8A828B8366
:1045F30012470E1227CA7404121558126CACE50840
:1046030028F508E50939F509050A1266B95077E571
:104613000A75F006A4F8A9F0E51028F582E5111251
:1046230066951247058A828B83A312534DF012536A
:10463300B6125348F0E5082403F50850020509882B
:10464300828983E070C2EA2403081253BA12470531
:10465300A38582088583098A828B83A3A3A3A312DC
:1046630047008C82F583E582458370030245DDAC08
:1046730008AD09AA82AB8388828983E0F912279A5D
:104683008A088B098082780C12152A8E088F097884
:104693000812152A74201218B7124B4012152EE473
:1046A300F508F509780812152A74221218B7124B67
:1046B3004012152E74221218B7124B4012152E7584
:1046C3000800780812152E750801780812152EAC0B
:1046D3000EAD0FAA14AB15A90B124557121558E9C5
:1046E300FEAA0CAB0D1222A880027E10EEF9740212
:1046F300121558802F1222A28A088B0922E0FCA3EC
:10470300E022E0850882850983F022126D82AA0ED9
:10471300AB0FA90B22FD8C828D83125B86EA4B22A1
:10472300AA12AB137F0E02121AEEF902472774EC9A
:10473300120E64890A8A108B11ECFEEDFF741412B9
:1047430018B712494470030247D4A808A9097C008A
:10475300800D12492750010B1249575001090C854E
:104763000C82850D83E0FAECC39A40E674016A700B
:104773000AA3E07006750E01750F00780812152A5A
:10478300780E12152A741C1218B712492112152E0D
:10479300E4F50CF50D780C12152A741E1218B712D5
:1047A300492112152E741E1218B712492112152E03
:1047B300750B00780B12152E750B04780B12152E42
:1047C30012454D121558E9FEAA08AB091222A8801A
:1047D300027E1002490EAA0EAB0F7F0C02121A853D
:1047E3000A82850B83E0F91227AC22EEFAEFFB1263
:1047F30022A28A0A8B0BEA4B22F8E4350DF9888250
:10480300F583124B30A322851082851183E0F8E5EE
:1048130008C3982274EC120E64890A8A108B11EC77
:10482300FEEDFF74141218B7124913F50875090049
:104833007402780812175F85080E85090FAA0EAB5C
:104843000F1266AD700302490C7900804AE9F51234
:104853007513007402781212175FE50C2512FCE53C
:104863000D3513FD8C82F583A31257158C828D832E
:10487300A3125E5FF0EC2403FC50010DF5828D83DF
:10488300125E60A3F08C828D83125E5FA3A3F0EAB5
:104893002404FA50010B09850C82850D83E0F8E9A5
:1048A300C39840A9740168700AA3E07006750E01ED
:1048B300750F00780812152A780E12152A741C1227
:1048C30018B712492112152EE4F50CF50D780C12C8
:1048D300152A741E1218B712492112152E741E12AE
:1048E30018B712492112152E750B00780B12152ECD
:1048F300750B07780B12152E12454D121558E9FE4C
:10490300AA08AB091222A880027E10EEF90247DD45
:104913001249172212521C850C82F583E022E0F51E
:104923000B780B22EC75F003A4FAABF0E50C2AFA32
:10493300E50D3BFB8A82F583124B5DF0EA2402FA14
:104943002212491775F003A4F50EE5F0F50FAA0E30
:10495300126D1922F5828B83124D12124B56A3A3AB
:10496300F0E82403F82274E8120E6474FE12162091
:10497300124BA41218B7124B4A8009EE2402FEE42C
:104983003FFF050812480A502FE50875F00D124B3A
:10499300012404FEE43FFFE070E8A3E070DDEE24B1
:1049A30005FEE43FFFE82404F50AE439124B1C60DA
:1049B300D11247E2EE2980C61247EE7003024AFC89
:1049C3008A0E8B0F7508008018E50C2409FAE4356C
:1049D3000DFB8A82124B2A124B52F08C0E8D0F055F
:1049E3000812480A4003024A99E50875F00D124B74
:1049F30064AA82AB83124805F0E50C24021247FC3B
:104A0300124B79A3F0E50E2404F50E5002050F8531
:104A13000C82850D83E070C7E50E2402FCE4350F9C
:104A2300FD850E82850F83A3A882A9838A828B8347
:104A3300E07096E50C2404F512E4350DF5138512A8
:104A430082124B2AF0E50C2405F516E4350DF51713
:104A530085168212608A124B8E2407F8E4350DF90D
:104A63008882124B2A124B9CF0E50E2405F50E505A
:104A730002050F851282851383124B2370030249AB
:104A8300E2AC0EAD0FE50C240BF582E4350DF58396
:104A9300124B380249E2780A12152A8E0C8F0D78D0
:104AA3000C12152A74221218B7124B4012152EE459
:104AB300F50CF50D780C12152A74241218B7124B45
:104AC3004012152E74241218B7124B4012152E756E
:104AD3000800780812152E750809780812152EACEF
:104AE30014AD15740B1218B7124B11121558E9FEB9
:104AF300AA0AAB0B1222A880027E10024541A4F839
:104B0300A9F0E51028F582E511124CAEEE22125BF6
:104B130086A909122734740B22F50B850A82F583C3
:104B2300E0F91227A0E922F583124B3022E0850E2B
:104B330082850F8322124D178A0E8B0F22E0F50810
:104B43007808228E828F83E0F510A3E0F5112212FC
:104B53004B56221240FE124B5D22A3E088828983CA
:104B63002212684785820C85830D124B30F0850C29
:104B730082850D83A322124B7D22A3F08882898331
:104B8300A3E0850E82850F83A3A322F08516828579
:104B930017831253CBF0E50C22A3A3124B7DA3A3DF
:104BA30022851882851983EAF0A3EBF089098C1416
:104BB3008D157E007F00750800741A2274EA120EA8
:104BC30064890B8A108B118C0E8D0F7E007F00750C
:104BD3000A0074161218B71252188003124C7B8500
:104BE3000C82850D831266BF40F21266A9607EA80F
:104BF30008A909750A008003124CB7850C82850D3C
:104C030083E0FAE50AC39A40EF780812152A8E0C5E
:104C13008F0D780C12152A741E1218B7124C7512C8
:104C2300152EE4F50CF50D780C12152A74201218C4
:104C3300B7124C7512152E74201218B7124C751238
:104C4300152E750A00780A12152E750A0A780A12AB
:104C5300152EAC0EAD0FAA10AB11A90B12455712AE
:104C63001558E9FEAA08AB091222A880027E100299
:104C7300472CE0F50A780A22E50A75F005A4F8A99D
:104C8300F0E50C28F582E50D124CAEA3A3A3126C3C
:104C9300C0A3A3E0F91227B28B09EA2403F8E43591
:104CA30009F9EE28FEEF39FF050A2239F583A3A897
:104CB30082A98322E50A75F005A4FAABF0124D062A
:104CC300858214858315124B5E126D9A124D12F074
:104CD300E5142402FAE435158A12F5138A82F58362
:104CE300124D12A3F0E82403FCE439FD85148285F8
:104CF3001583A3A3A3124D178A128B13A812A9130A
:104D0300050A22E50C2AF582E50D3BF583A3221261
:104D13004B5EA322E0FAA3E0FB851282851383E0B6
:104D2300F912279A2274F6120E6474FE121620E901
:104D3300FE740C1218B7124DAE124DB6124DBEE0F2
:104D4300C0E074011218B7D0E0F0A818A9198808B8
:104D53008909780812152A7508027509007808125E
:104D6300152A74161218B7124B4012152E74151209
:104D730018B712132174161218B7124B4012152EBE
:104D830074161218B7124B4012152E7508007808C6
:104D930012152E75080B780812152EEEF9124557C9
:104DA30012155874021215580254E9126CB788820E
:104DB300F58322E085188285198322F0888289830E
:104DC300A32274F1120E6474EB121620EAFEEBFFB9
:104DD300C200EA2420F8E43F8808F5098882F583B5
:104DE300C3E09403A3E09400500579010251F990C4
:104DF300152F126DB074021218B7126DB0740E1223
:104E030018B7E4F0A3F0740A1218B7E4F0A3F0742F
:104E13000C1218B7E4F0A3F0EA2422F8E43F880A5E
:104E2300F50B8882F5831266B574041218B7AA824B
:104E3300AB831227648A0C8B0DA80CA90D740A127C
:104E430018B7126DB0850882850983125B82EAC3A5
:104E530098F8EB99F9850A82850B83E028F8A3E09B
:104E630039F9740C1218B71266D274081218B7E025
:104E7300901528F0EE2414F508E43FF5098508821F
:104E8300F583E0F91236C48A828B83E58245837009
:104E93000C90152FE4F0A3F079020251F912524C51
:104EA300602BEE2404F50AE43FF50BA312132174DF
:104EB3000B1218B7E0FD74061218B7E05403FC1286
:104EC300525B12272E7402121558E9700C90152F9D
:104ED300E4F0A3F079030251F912525B1236A6E90A
:104EE300F50E850A82850B83125B82EAFCEBFD904B
:104EF30015298004888289831259B17003024FEC0B
:104F030088828983A3A3125218C3EA950CEB950DEB
:104F130040E288828983A3A3A3A3C3E09CA3E09D6B
:104F230040D2E8FCE9FD74041218B7E05407700D91
:104F330074091218B7E0640B7003024FF0E50EA278
:104F4300E64003024FF0EE2419F582E43FF583E0D7
:104F53006003024FF074021218B7125224707E7469
:104F6300021218B71259AC70747C00850882850947
:104F730083E0F912279474011218B77401F07409CD
:104F83001218B71252011218B7E0F50C780C12156B
:104F93002E74071218B7121321750C01780C121511
:104FA3002E74081218B7126867F50C780C12152EB8
:104FB30074051215DA880C890D780C12152A7409F8
:104FC3001218B71252431218B712520C1218B71212
:104FD30052321215587C0112525B12279490152FEE
:104FE300E4F0A3F079050251F97C007D007404120A
:104FF30018B7E0F854036003025114E85404600541
:105003007E8402515374091218B7E0F8C394174011
:1050130003025110E8F50A750B007402780A12179F
:105023005F7426250AF582743E350BF583E493F805
:10503300740193F9E84970030251108508828509C8
:1050430083E0C0E074101218B7D0E0F0740C1218AB
:10505300B7125B8274111218B7126DB0740A12186A
:10506300B7125B8274131218B7126DB07410121555
:10507300E2888289831210998B09A909740E121888
:10508300B7126DB0EA49604B74091218B7E0F5081E
:105093007509007402780812175F74282508F582D1
:1050A300743E3509F583E493F87401938882F5839C
:1050B300E5824583601274021215E2121099740E90
:1050C3001218B71259B1600B740E1218B7125B8223
:1050D3001222A874091218B7E0F8605474026860C9
:1050E3004F740368604A74066860457408686040DA
:1050F300740C68603B7411686036741368603174B3
:105103001568602C740B6860277E0080437E828064
:105113003FEC4D602B8C828D83A3A3A312524C6072
:105123001F74021215E2121099E9FE74FF6E700BE0
:1051330090152FE4F0A3F0F90251F974016E701089
:1051430074041218B7E0540460047E8380027E81E5
:1051530074021218B7125224707574021218B7121F
:1051630059AC706B74041218B7E0FA541070607481
:10517300011218B7EEF074091218B712520112187F
:10518300B7124B4012152E74071218B7121321755C
:105193000801780812152EEA131313541F640154DF
:1051A30001F508780812152E74051215DA88088996
:1051B30009780812152A74091218B71252431218E3
:1051C300B712520C1218B7125232121558D200905D
:1051D300152FE4F0A3F0EE70047900801974846E47
:1051E300A200700A50047907800C790680085004E5
:1051F300790980027908741512155802591CE08543
:105203001882851983F0740822E02406FAA3E03497
:1052130000FB74092212521C22E0F50CA3E0F50DE9
:1052230022125C1CC82415F582E438F583E022A31E
:10523300E0C812696D38F583E0F912275874072224
:10524300126C5E126D7E740922A3A3A3125C1C88E8
:1052530082F583E582458322850A82850B83125B6F
:1052630086850882850983E0F92274F4120E648A24
:10527300088B09ECFEEDFF7C067D0079001221DC32
:10528300850882850983E054FCF8A3E0F98E828FB8
:1052930083E05403FAE84A850882850983F0A3E989
:1052A300125356A2E25004D2F08002C2F085088263
:1052B300850983E054FBF0A2F0E433F50A750B0093
:1052C3007402780A12175FE0450A125356A2E38567
:1052D3000882850983E050044408800254F712537E
:1052E30056A2E45004D2F08002C2F08508828509F8
:1052F30083E054EFF0A2F0E433F50A7404780A1261
:10530300175FE0450A125D76850882850983E054BC
:105313000460108E828F83E0FAA3E0F9EA1263043B
:1053230050010F8E828F83125348A3A31262E48528
:105333000882850983A3A3A3A3A3F0EE2402FAE4BE
:105343003FFB0243A212534DA322E0850882850945
:1053530083A32212571EE02274F7120E648A828BF3
:1053630083E054038C828D831253D954041253D295
:1053730054081253D25410F88C828D83E048F0A362
:10538300AC82AD838A828B83E0540460101253B6DF
:105393001253CC124DBE1253C2FC50010D8A828BA4
:1053A30083A3A3A31253CB1253DE1253C2FAE43DD9
:1053B300FB803EEA2402F8E43BF98882F58322125B
:1053C30053CCA3F0EC240222A3E08C828D8322F839
:1053D3008C828D83E0481240FEE0221253E22212B7
:1053E30053E7A322F08A828B83A3A3A3A3221227CA
:1053F300047F0102121AC082C08390152B80048A95
:10540300828B8312471D60138A828B83A3A3E0F8E8
:10541300E968600B74FF6870E680047A007B000221
:10542300421074F0120E648A088B09ECFEEDFF1231
:1054330027708A0C8B0DEA4B60787C0080010C8509
:105443000C82850D83A3A3A3A3A3A3A3E0F8ECC3BA
:1054530098505FECF50E750F007403780E12175F0A
:10546300850C82850D83A3A3A3A3A3A3A3A3E025F4
:105473000EF8A3E0350FF98882F583E493FA7401FB
:1054830093FBE5086A7003E5096B70B2A3A3E49389
:10549300FA740193FBEE6A7002EF6B70A174101241
:1054A30018B71266B58983888274081214227901A9
:1054B3008002790080031215587F0802121A74F6CD
:1054C300120E641254EE6005125B7F80047A007B37
:1054D30000801374F6120E641254EE6005125B7DA5
:1054E30080047A007B007F0202121A1227708A82DC
:1054F3008B83E58245832274F7120E64E9FFEAFC8D
:10550300EBFD90152D8004888289831259B1604682
:1055130088828983A3A3E06F70ED7E0080010E88EB
:10552300828983A3A3A3E0FAEEC39A50DAEE75F05F
:1055330003A4FA85F008AB0888828983A3A3A3A3F5
:10554300E02AFAA3E03BFB8A82F583E06C7003A3B5
:10555300E06D70CA80047A007B000253F474F61283
:105563000E641227888A828B83E58245836006A3B3
:10557300A3E0F9800279000254E974F6120E64EC98
:10558300FF1227888B09A909EA496015EA2402F565
:1055930082E439F583EF6005E0D2E68003E0C2E6FA
:1055A300F00254E974F1120E64EAFEEBFFECFAED3B
:1055B300FBEE4F7003025712EC2402F50CE43BF5AB
:1055C3000D8C828D83A3AC82AD838E088F09750AFF
:1055D30000E91213D2044142DF564344F156E0E29C
:1055E300AA56E8E95D5621084F56095D560A6C56DE
:1055F3000BAA56104F56184F56195D561A6C561B68
:10560300AA56204F56215D56226C5623AA5624BB18
:105613005625C45626CD5627D656284F56295D56AD
:105623002A6C562BAA562CBB562DC4562ECD562F5C
:10563300D656304F56315D56385D5639AA563AD64E
:1056430056EAAA56F0D656F1035712578E828F8325
:10565300125715ECFAEDFB0257121262DD8C828DA4
:1056630083F00A0AAB0D0257128E828F83780812D9
:1056730018488A828B83E50812571A78081218484B
:10568300E5098C828D8312571A7808121848741012
:1056930078081215C1850C82850D83E508F0EA248C
:1056A30003FA506B0B80688E828F8312131D1222B4
:1056B3005A7404121558805778081215267C0580F1
:1056C3004678081215267C06803D78081215267C3C
:1056D30007803478081215267C08802B7808121569
:1056E300268E828F83E02401FCE43400800F780847
:1056F3001215268E828F831258B0FCE439FD80097F
:1057030078081215267C107D00125D701215580260
:10571300591C125E65F02212571E22F08E828F836F
:1057230022C082C083E91213D203202F3C57383A98
:105733003C57E0E23C570040577901800279000270
:10574300421074F2120E6474FE121620EAFEEBFF8E
:105753008C088D091227B28518828519837401F08C
:10576300A3E4F0851882851983E0600C750C01753C
:105773000D00780079008038750CFF750DFFEA2461
:10578300FFF8EB34FF8028850882850983E0C0E0B9
:10579300EE28F582EF39F583D0E0F085088285099C
:1057A30083A3858208858309E8250CF8E9350DF97B
:1057B300EAFCEBFDEC24FF1AED34FFFBEC4D70C764
:1057C3007402121558025B78E924F8607814607942
:1057D30014607A14607B24FB606B24F860671460A8
:1057E3006814606914606A24FB605A14605B146077
:1057F3005C14605D14605E14605F1460601460612B
:1058030014604214604314604414604514604614E9
:10581300604714604814604914602A14602B24F90B
:10582300602714602C146039245A602514602214F4
:10583300601F24FA601314601014601524FA6021A9
:105843001460228024790180227902801E790380EA
:105853001A79048016790580127906800E790780FB
:105863000A7908800679108002790002150A74F714
:10587300120E64E9FE74446E600574436E700C8A04
:10588300828B831258B0FAE439801574426E600536
:1058930074416E700E8A828B83E02401FAE4340033
:1058A300FB80071227ACE9FA7B000253F41247008E
:1058B300F9EC24022274F1120E64EAFEEBFFEC24ED
:1058C30006F8E43D8808F5098882F58312471D70C0
:1058D30004790180448C828D831259218A0A8B0BAF
:1058E300850882850983E0F508A3E085080CF50D9A
:1058F300750E00780C121526AC0AAD0BEEFAEFFB11
:10590300125D70121558740F1218B712524F6007B8
:10591300E50AF0A3E50BF079007F0702121AA3A3AF
:10592300A3A3E0F91227B22274F0120E6474F812E2
:105933001620890A8A088B09ECFEEDFFA818A9191D
:10594300880C890D780C12152AA90A1243A812157E
:1059530058E970047901804C74181218B7125A77F9
:10596300741A1218B712521874061218B71259B1D2
:10597300780C601612152A74021215EAAA0EAB0FE0
:105983001227B87402121558801A12152A780E12AB
:10599300152AEEFCEFFDAA08AB09A90A1227CA745F
:1059A3000412155874080254B9126C5EA3A3126C46
:1059B300B7E8492274F0120E6474FE1216208A0CA2
:1059C3008B0DECFEEDFF851882851983E4F0A3F0BF
:1059D30012277C8A088B09EA4B602FA818A919881B
:1059E3000E890F780E12152AE4F50EF50F780E12B4
:1059F300152A7900EEFCEFFDAA0CAB0D8508828514
:105A03000983121099740412155885188285198315
:105A1300125B8274020254B974F0120E648A088B0A
:105A230009ECFEEDFF12277C8A0A8B0B7412121805
:105A3300B7125A77E50E450F600A850E82850F83EC
:105A4300E4F0A3F0EA4B6027780E12152A741212C1
:105A530018B71213217901EEFCEFFDAA08AB0985F3
:105A63000A82850B831210997404121558800279E7
:105A7300C10254BC126CA42274F1120E64ECFEED4C
:105A8300FF8C82F583A3A3A3A3A3E0A2E1506E122C
:105A930027DCE9F50A7069740F1218B712641790BE
:105AA30015251259B16013AC08AD09EEFAEFFBE00E
:105AB300F5838882121099E9603EE5082403F8E42F
:105AC30035098808F5098882F583125B828E828FF7
:105AD300831259218A0C8B0DAC0CAD0D8508828580
:105AE3000983125B081215268E828F83A3125B7DB6
:105AF300125D701215588008750A878003750A882D
:105B0300A90A02591C12521C750E00780C2274F259
